:020000040000FA
:100000000C942A000C9447000C9447000C94470071
:100010000C9447000C9447000C9447000C94470044
:100020000C9447000C9447000C9447000C94470034
:100030000C9447000C9447000C9447000C94470024
:100040000C9447000C9447000C9447000C94470014
:100050000C94470011241FBECFE5D8E0DEBFCDBF12
:1000600010E0A0E6B0E0E6E1F8E102C005900D92F4
:10007000A03FB107D9F721E0A0EFB0E001C01D9289
:10008000AE35B207E1F70E94B9010C94090C0C944B
:10009000000023E023BF33E8019740F032BF28B7C8
:1000A000216028BF08B600FEFDCFF6CF13BE08952D
:1000B000E3EFF0E08DE2819391E0E130F907D9F7C9
:1000C000E3E0F1E08DE2819391E0E131F907D9F7C6
:1000D000E0915101F091520184E0EE0FFF1F8A95EB
:1000E000E1F7ED50FF4F8EE380830895E3EFF0E0FA
:1000F0008DE2819391E0E330F907D9F7E3E0F1E095
:100100008DE2819391E0E331F907D9F78EE3809393
:10011000F30080E380930101809302018CE48093DB
:10012000110183E38093120108950F931F93CF93DE
:10013000DF9300D000D000D0CDB7DEB749835A831B
:100140006B837C838D839E8340914F01509150013E
:1001500029813A816B817C81AD81BE81E3E1F1E04F
:1001600090E080E0841795077CF5008111810217EB
:10017000130719F50281138106171707F1F404819B
:1001800015810A171B07C9F466E0689F9001699FF3
:10019000300D11242D5E3E4F4150510984179507B3
:1001A0007CF4019666E0F9013696D90101900D9232
:1001B0006A95E1F72A5F3F4FF1CF01963696D2CF8D
:1001C0005093500140934F0126960FB6F894DEBF2E
:1001D0000FBECDBFDF91CF911F910F910895662380
:1001E00059F0C09AC19882BB8FEF81BBC29A0000C0
:1001F00000000000C2980895C098F4CFC098C19A3A
:1002000011BA90B3C29A00000000000011BA90B376
:10021000C29897FDF3CF0C94EF00CF93DF93EC01DE
:100220008991882321F061E00E94FE00F9CFDF91DF
:10023000CF910895CF93C62F98E2899FC00D1124C6
:1002400060E082E00E94FE00C15018F060E084E1AE
:10025000F9CFCF91089560E081E00C94FE000E94F8
:100260002B0160E080E00E941A0186E790E00E9486
:100270000D0160E081E00E941A0187E890E00C9493
:100280000D010E942B0160E080E00E941A0188E9C4
:1002900090E00E940D0160E081E00E941A0184EA72
:1002A00090E00C940D01EF92FF920F931F93CF9368
:1002B000DF9300D01F92CDB7DEB760E080E00E94F0
:1002C0001A0191E0E92E91E0F92E03EF10E061E0D0
:1002D000F80181918F010E94FE00E016F106B9F746
:1002E00060E081E00E941A0103E011E081E1E82E64
:1002F00081E0F82E61E0F80181918F010E94FE00FB
:10030000E016F106B9F76EE080E00E941A018091D4
:100310005D018F9380915C018F9380EB90E09F93C0
:100320008F938E010F5F1F4F1F930F930E94310910
:10033000C8010E940D016EE081E00E941A0161E097
:100340008CE40E94FE008091600061E0805D0E946C
:10035000FE000F900F900F900F900F900F900F9046
:100360000F900F90DF91CF911F910F91FF90EF9021
:100370000895CF93DF93CDB7DEB7A2970FB6F89469
:10038000DEBF0FBECDBF81E087BB8FE084BB80EFB7
:1003900085BBB89AB99ABA9A80E190E00E94490068
:1003A00060E080E30E94EF0085E090E00E94490059
:1003B00060E080E30E94EF0081E090E00E9449004D
:1003C00060E08CE30E94FE0060E08CE00E94FE0092
:1003D00060E086E00E94FE0060E081E00E94FE0096
:1003E0000E9476000E9476000E944101EFE09E2E5E
:1003F000F12CE12CFDE28F2E30E020E0A89AA99AA2
:10040000AA9AAB9A45B381E090E0022E01C0880F12
:100410000A94EAF78095842385BB50E040E083B3DB
:1004200090E0BA016C5F7F4F02C0959587956A9501
:10043000E2F76C0161E0C622DD2480FD2DC0C90118
:10044000880F991F880F991F8A599F4F480F591F6E
:10045000DA011C91112331F18091F000181751F14C
:100460001093F00084E190E00E944900B1E0EB16A7
:10047000F10409F4A9C108F44FC0F2E0EF16F10449
:1004800009F415C423E0E216F10409F41FC584E65B
:1004900090E00E944900B0CF4F5F5F4F443051055C
:1004A00009F0BDCF2F5F3F4F2430310509F0A6CFB3
:1004B0001092F000F1E0EF16F10409F41BC223E002
:1004C000E216F10421F70E94580088E893E10E94A7
:1004D000490010925D0110925C0183E090E09093DE
:1004E0006100809360001092500110924F011092B1
:1004F000540110925501109256011092570110921A
:1005000058011092590110925A0110925B010E94F9
:100510002B010E94410127C4113451F40E942B0188
:100520000E9453016FE0962EEE24E394F12CAFCF9E
:10053000173309F0ACCF90E080E00E94E407E82E8A
:10054000F12CF0925D01E0925C0181E090E00E946C
:10055000E40790E0909361008093600082E090E077
:100560000E94E407482E512C5092520140925101B2
:1005700083E090E00E94E407282E312C3092500155
:1005800020924F0184E090E00E94E407682E80935F
:100590005401109255011092560110925701109279
:1005A00058011092590110925A0110925B0185E096
:1005B00090E00E94E407282F30E040E050E060E047
:1005C00070E080E090E008E00E94CF08732E942E47
:1005D000A52EB62EC72ED82E192F622A609254014E
:1005E0003093550140935601509357016093580141
:1005F0007093590180935A0190935B0186E090E0DB
:100600000E94E407282F30E040E050E060E070E016
:1006100080E090E000E10E94CF08622A732A942AC9
:10062000A52AB62AC72AD82A192B6092540170929B
:10063000550190925601A0925701B0925801C09274
:100640005901D0925A0110935B0187E090E00E941B
:10065000E407282F30E040E050E060E070E080E008
:1006600090E008E10E94CF08262920935401372901
:10067000309355014929409356015A295093570107
:100680006B2960935801C72AC09259018D29809324
:100690005A01912B90935B0103E111E0B12CA12C45
:1006A0005AE0C52ED12CA214B3040CF042C0C601EE
:1006B0000E94E407982EC60101960E94E407782E56
:1006C000C60102960E94E40790E0292D30E0D8018F
:1006D00011963C932E93672D70E013967C936E9346
:1006E000129715969C938E93149744E0220F331F14
:1006F0004A95E1F7260F371F50E040E048175907A9
:100700007CF4FA01E60FF71F3E9738F4FA01E20F86
:10071000F31FED50FF4FBBE2B0834F5F5F4FEECF53
:10072000EFEFAE1ABE0AF3E0CF0ED11C0A5F1F4FE7
:10073000BACF2DE22093F30020930301F20134E0BD
:10074000EE0FFF1F3A95E1F7ED50FF4F8EE38083E8
:1007500092E0992E4FE1E416F104A4F483E0982E80
:1007600060E1E616F10474F405E0902E8BE0E816E3
:10077000F10444F42AE0922E96E0E916F10414F410
:100780001FE0912E0E942B0160E080E00E941A0180
:1007900084EB90E00E940D0188EE93E00E944900F6
:1007A0000E942B0160E080E00E941A018CEB90E037
:1007B0000E940D0188EE93E00E9449000E942F01E3
:1007C000B2E0EB2EF12C63CE1533C1F3163319F0E2
:1007D000193309F08FC0E0915101F0915201A4E06A
:1007E000EE0FFF1FAA95E1F7ED50FF4F80821933FE
:1007F00009F064C0109252011092510160915101B0
:10080000709152018B01E4E0000F111FEA95E1F7AE
:10081000F801ED50FF4F80818B3209F066C0809166
:100820006000909161000197909361008093600057
:1008300081E08093530123E131E050E040E080917A
:100840004F0190915001481759070CF04EC086E0B7
:10085000F901DE015D9601900D928A95E1F7F901AB
:10086000808191816817790709F089C00280F3813E
:10087000E02D1E161F060CF482C0D90114968D912E
:100880009C91DF01A80FB91F1A161B060CF077C048
:1008900098012E0F3F1FC816D906D4F4AF014C0D96
:1008A0005D1D4E30510530F4D901AC0DBD1DAD506C
:1008B000BF4F8C92BFEFCB1ADB0AEDCF163309F096
:1008C0009DCFA1E0B0E0B0935201A093510196CF2B
:1008D000462F7E8F6D8F6E2FF8A3EF8F9AA389A37B
:1008E0005E8D78A19AA10E949500F801ED50FF4F0E
:1008F0008EE38083A92C20915401309155014091C1
:100900005601509157016091580170915901B12CD5
:10091000C12CD12CE12CF12C00E010E080915A0187
:1009200090915B010E947008A0E00E94110909F0FB
:100930002BC10E94D40763E070E00E945C086091C4
:100940004F017091500143E151E030E020E0ADE013
:10095000B0E0A81BB90B26173707B4F4FA0182815F
:1009600093814A5F5F4F0480F581E02D8E0F9F1FBA
:10097000A817B9070CF44CC02F5F3F4FECCF4F5F67
:100980005F4F2A5F3F4F5BCF0E94D40762E070E069
:100990000E945C088C01009751F42091F100309185
:1009A000F2002F5F3F4F3093F2002093F10020912F
:1009B000F1003091F2002330310549F401E010E0FC
:1009C000892B09F000E01092F2001092F1000E94D1
:1009D000D40720914F013091500146E0429FF00131
:1009E000439FF00D1124ED5EFE4F008311834FE015
:1009F00050E05383428364E070E00E945C080296FA
:100A0000958384832F5F3F4F3093500120934F0194
:100A100080914F01909150015C01E1E0AE1AB10864
:100A200046E0489F9001499F300D1124C901835F22
:100A30009E4F7C0156E0352E22242394B7FCA4C09F
:100A400086E0F701DE01579601900D928A95E1F755
:100A5000D70112960D911C9113971496CD90DC90AE
:100A600015976D907C90602F1A8F098FDC8ECB8E3E
:100A70004F89588D7A8D8C2D9C8D0E949500930105
:100A800044E0220F331F4A95E1F7200F311F2D500C
:100A90003F4F90E080E08C159D0564F4AC01400F61
:100AA000511F4E30510520F4F901E80FF91F8082E3
:100AB0000196F1CF01501109C8018C0D9D1D101632
:100AC0001106ECF0181619060CF054C08091510173
:100AD0009091520168167906A9F480916000909176
:100AE0006100019790936100809360002092530110
:100AF000E1E0AE1AB108F6E0EF1AF1089FCF181640
:100B00001906C4F590E080E08C159D0574F4A801E9
:100B1000480F591F4E30510530F4FC013197E20F58
:100B2000F31FBBE2B0830196EFCF1A8F098F86E0E7
:100B3000FE017796DE01519601900D928A95E1F7BC
:100B400080914F0190915001DE8ACD8A389ED0016C
:100B5000399EB00D1124AD5EBE4FFE017196232D5E
:100B600001900D922A95E1F70196909350018093A0
:100B70004F01BECF80915C0190915D0101969093F1
:100B80005D0180935C01B4CF80915C0190915D0127
:100B90008630910584F08B3091055CF080319105B1
:100BA0000CF482C023E0922E4F972CF002E0902E9E
:100BB00002C09AE0992E0E9453018091530188232C
:100BC000C1F01092530105E010E060E08091510106
:100BD0000E941A0161E080E20E94FE008AE090E03B
:100BE0000E94490061E08EE30E94FE00015011095D
:100BF00061F78091600090916100EE24E394F12C04
:100C0000181619066CF10E942B0160E080E00E942A
:100C10001A0183EC90E00E940D0160E081E00E94E7
:100C20001A0180915D018F9380915C018F9384ED17
:100C300090E09F938F9381E090E08C0F9D1F9F9396
:100C40008F930E943109CE0101960E940D010F90F1
:100C50000F900F900F900F900F9013E0E12EF12C5A
:100C60002091540130915501409156015091570106
:100C7000609158017091590180915A0190915B01E6
:100C8000A1E00E940509209354013093550140933F
:100C90005601509357016093580170935901809306
:100CA0005A0190935B01F3CB85E0982E84CF1533E6
:100CB00029F40E942B010E94530136CC183309F00D
:100CC00055C010925D0110925C0183E090E090931A
:100CD00061008093600010925401109255011092AF
:100CE000560110925701109258011092590110921A
:100CF0005A0110925B010E942B010E9458000E9431
:100D0000410100914F0110915001E3E1F1E050E009
:100D100040E0401751071CF5E480F5806281738143
:100D200020813181A4E0220F331FAA95E1F7260F1D
:100D3000371F90E080E08E159F056CF4DC01A60F54
:100D4000B71F1E9730F4DC01A20FB31FAD50BF4F89
:100D50008C920196F0CF4F5F5F4F3696DACF1092AC
:100D6000500110924F01F12CE12C91CB143309F07A
:100D70008ECB60915C0190E080E00E94EC07609176
:100D8000600081E090E00E94EC076091510182E0F8
:100D900090E00E94EC0760914F0183E090E00E9498
:100DA000EC076091540184E090E00E94EC072091F0
:100DB0005401309155014091560150915701609175
:100DC00058017091590180915A0190915B0108E09E
:100DD0000E94EA08622F85E090E00E94EC072091D3
:100DE0005401309155014091560150915701609145
:100DF00058017091590180915A0190915B0100E175
:100E00000E94EA08622F86E090E00E94EC072091A1
:100E10005401309155014091560150915701609114
:100E200058017091590180915A0190915B0108E13C
:100E30000E94EA08622F87E090E00E94EC0793E1AD
:100E4000A92E91E0B92E0AE010E080914F01909117
:100E50005001C816D906DCF4D5016C91C8010E9476
:100E6000EC07F5016281C80101960E94EC07D501EB
:100E700014966C91C80102960E94EC07BFEFCB1A42
:100E8000DB0AE6E0AE0EB11C0D5F1F4FDECF0E9405
:100E90002B0160E080E00E941A018EED90E00E943C
:100EA0000D0188EE93E00E9449000E942B0160E052
:100EB00080E00E941A0185EE90E00E940D0188EE0C
:100EC00093E00E9449000E942F01E1CA133209F009
:100ED000FACA0E94580010925D0110925C01F092D3
:100EE0006100E09260001092500110924F01109248
:100EF0005401109255011092560110925701109210
:100F000058011092590110925A0110925B01D1CEF2
:100F10008F929F92AF92BF92CF92DF92EF92FF9209
:100F2000CF93DF93EC01688179818A819B81611580
:100F300071058105910521F464E279ED8BE597E077
:100F40002DE133EF41E050E00E94F90749015A01D9
:100F50009B01AC01A7EAB1E40E9418086B017C0177
:100F6000ACEEB4EFA50194010E942608DC01CB0190
:100F70008C0D9D1DAE1DBF1DB7FF03C00197A109BC
:100F8000B04888839983AA83BB839F77DF91CF91F1
:100F9000FF90EF90DF90CF90BF90AF909F908F9099
:100FA00008950E948807089582E690E00E948807CD
:100FB0000895B0E0A0E08093620090936300A09356
:100FC0006400B09365000895E199FECF9FBB8EBB8E
:100FD000E09A99278DB30895262FE199FECF9FBB04
:100FE0008EBB2DBB0FB6F894E29AE19A0FBE019624
:100FF0000895052E97FB1EF400940E94100857FDDB
:1010000007D00E942B0807FC03D04EF40C94100864
:1010100050954095309521953F4F4F4F5F4F089524
:1010200090958095709561957F4F8F4F9F4F089554
:101030000E944D08A59F900DB49F900DA49F800D18
:10104000911D11240895B7FF0C9418080E941808E8
:10105000821B930B0895A1E21A2EAA1BBB1BFD0154
:101060000DC0AA1FBB1FEE1FFF1FA217B307E40787
:10107000F50720F0A21BB30BE40BF50B661F771FDF
:10108000881F991F1A9469F76095709580959095BF
:101090009B01AC01BD01CF010895A29FB001B39F98
:1010A000C001A39F700D811D1124911DB29F700D71
:1010B000811D1124911D089597FB072E16F40094AD
:1010C00007D077FD09D00E941D0907FC05D03EF42A
:1010D000909581959F4F0895709561957F4F0895E4
:1010E000689401C0E8948F929F92CF93DF930E94FF
:1010F0007E08DF91CF919F908F9008958824992446
:10110000F401E401B0E49F93AA279A158B049C0490
:10111000ED05FE05CF05D007A10798F4AD2FDC2F14
:10112000CF2FFE2FE92D982C892E982F872F762FE1
:10113000652F542F432F322F2227B85031F7BF91FC
:1011400027C01B2EBF91BB27220F331F441F551FE3
:10115000661F771F881F991F881C991CEE1FFF1F91
:10116000CC1FDD1FAA1FBB1F8A149B04EC05FD05C5
:10117000CE05DF05A007B10748F08A189B08EC09E7
:10118000FD09CE09DF09A00BB10B21601A94E1F62D
:101190002EF49401AF01BE01CD01000C0895002E84
:1011A000083090F0982F872F762F652F542F432FDC
:1011B000322F22270850F4CF220F331F441F551F10
:1011C000661F771F881F991F0A95B2F7002D089593
:1011D00097FD1094002E083098F00850232F342FDC
:1011E000452F562F672F782F892F912DF4CF1594E7
:1011F000979587957795679557954795379527954F
:101200000A95AAF71124002D08950024A7FD009443
:101210002A0F301D401D501D601D701D801D901D2A
:1012200008950024A7FD00942A17300540055005B5
:1012300060057005800590050895AA1BBB1B51E150
:1012400007C0AA1FBB1FA617B70710F0A61BB70B36
:10125000881F991F5A95A9F780959095BC01CD01DB
:101260000895AEE0B0E0E7E3F9E00C94E00B0D89FF
:101270001E8986E08C831A8309838FEF9FE79E8304
:101280008D83AE01475E5F4F6F89788DCE010196E9
:101290000E9454092F813885020F131FF801108214
:1012A0002E96E4E00C94FC0BABE0B0E0EAE5F9E04C
:1012B0000C94D20B7C013B018A01FC01178216823F
:1012C000838181FFC8C1CE0101965C01F701938142
:1012D000F30193FD859193FF81913F01882309F4E8
:1012E00053C1853239F493FD859193FF81913F017C
:1012F000853229F4B70190E00E94440BE7CF912C8E
:10130000212C312CFFE1F31538F08B3211F190F4E0
:10131000803209F1833229F137FC3CC020ED280FDF
:101320002A3050F536FE20C08AE0989E200D112408
:10133000922E06C08D3291F0803371F7689430F8A8
:10134000F30193FD859193FF81913F018111DACFE4
:1013500021C0689431F8689432F8F2CF689433F879
:10136000EFCF689434F8ECCFEAE02E9E200D1124E4
:10137000222E689435F8E4CF8E3229F436FC04C16D
:10138000689436F8DDCF8C3619F4689437F8D8CFE6
:101390008836B1F2982F9F7D95549330E0F08336D4
:1013A000A1F18337C1F1833509F063C02801F2E070
:1013B0004F0E511CF801C080D180692D70E036FCC1
:1013C00002C06FEF7FEFC6010E942E0B4C016894A4
:1013D00037F882010AC00C5F1F4FFFE3F9838824AE
:1013E0008394912C6501E89437F833FE2DC0522C7C
:1013F0008114910471F5552009F468CFB70180E29A
:1014000090E00E94440B5A94F6CFF80180818983C2
:101410000E5F1F4FE4CF2801F2E04F0E511CF80180
:10142000C080D180692D70E036FC02C06FEF7FEF85
:10143000C6010E94390B4C018201D5CFB70180E271
:1014400090E00E94440B2A942814190409F0B0F784
:10145000CECFF60137FC859137FE81916F01B70140
:1014600090E00E94440B51105A94F1E08F1A9108B9
:10147000BFCF843619F0893609F077C0F80137FEFE
:101480006BC060817181828193810C5F1F4FF32D4E
:10149000FF763F2E97FF09C09095809570956195D6
:1014A0007F4F8F4F9F4F689437F82AE030E0A501B7
:1014B0000E94740BC82ECA188C2C432C36FE0CC00C
:1014C000E89440F8C91440F434FE05C032FC03C06F
:1014D000F32DFE7E4F2E892C44FE95C0FE01EC0DAF
:1014E000F11D8081803309F087C0242D297E422E92
:1014F000842D8870582E43FC95C040FE8FC09C2CD4
:10150000821418F42C0C922C981844FE91C0B70148
:1015100080E390E00E94440B42FE09C088E790E01F
:1015200041FE02C088E590E0B7010E94440BC91457
:1015300008F48AC0CA94D12C9FEFC91AD90ACA0CE0
:10154000DB1CF60182916F01B70190E00E94440B11
:10155000AC14BD04B1F74FCF60817181072E000C30
:10156000880B990B0E5F1F4F92CFD32CE894D4F8C1
:101570002AE030E0853739F1232D297FD22E8F36AE
:1015800001F148F48835A9F0F701868197812B96FF
:10159000E2E10C94EE0B803749F08837A9F7D4FECE
:1015A00002C06894D2F820E130E00DC06894D4F80D
:1015B000F6CF34FE03C0822F8660D82E20E132E0C1
:1015C00002C028E030E0F801D7FE0FC060817181D1
:1015D000828193810C5F1F4FA5010E94740BC82E5E
:1015E000CA183D2CE89437F867CF6081718190E08C
:1015F00080E00E5F1F4FF0CF42FC02C0839478CF93
:101600008394839475CF842D867809F471CFF6CFB7
:10161000B70180E290E00E94440B83948214C0F3EF
:10162000512C73CF522C5818821408F46ECFF8CF77
:10163000842D867809F47BCF8BE241FE80E247FC63
:101640008DE2B70190E071CFB70180E390E00E9496
:10165000440B9A946CCF8FEF9FEF99CFFC010590CC
:10166000615070400110D8F7809590958E0F9F1FA4
:101670000895FC016150704001900110D8F78095E9
:1016800090958E0F9F1F08950F931F93CF93DF9315
:10169000182F092FEB018B8181FD09C01FEF0FEF80
:1016A000812F902FDF91CF911F910F91089582FF8D
:1016B00014C02E813F818C819D81281739073CF40D
:1016C000E881F981CF0101969983888310838E8107
:1016D0009F8101969F838E83E3CFE885F985812FD3
:1016E0000995892BA1F3DACFFA01AA27283051F105
:1016F000203181F1E8946F936E7F6E5F7F4F8F4F43
:101700009F4FAF4FB1E03ED0B4E03CD0670F781FA1
:10171000891F9A1FA11D680F791F8A1F911DA11D86
:101720006A0F711D811D911DA11D20D009F46894BF
:101730003F912AE0269F11243019305D3193DEF667
:10174000CF010895462F4770405D4193B3E00FD01D
:10175000C9F7F6CF462F4F70405D4A3318F0495D08
:1017600031FD4052419302D0A9F7EACFB4E0A695EB
:101770009795879577956795BA95C9F7009761050D
:10178000710508959B01AC010A2E06945795479563
:1017900037952795BA95C9F7620F731F841F951F58
:1017A000A01D08952F923F924F925F926F927F9269
:1017B0008F929F92AF92BF92CF92DF92EF92FF9261
:1017C0000F931F93CF93DF93CDB7DEB7CA1BDB0B0D
:1017D0000FB6F894DEBF0FBECDBF09942A883988B2
:1017E00048885F846E847D848C849B84AA84B984B9
:1017F000C884DF80EE80FD800C811B81AA81B981C5
:10180000CE0FD11D0FB6F894DEBF0FBECDBFED01D8
:101810000895F894FFCF03000100000031323341F6
:1018200034353642373839432A3023445061757392
:10183000656420202020383A5175697400353A5289
:101840006573756D652020343A53617665002050CC
:101850006C6179202D3E20412000204C6F61642076
:101860002D3E20372000253264004C6F6164696E84
:1018700067004C6F616465640047414D45204F56D9
:10188000455220504C41593A230053636F72653AD8
:1018900020256400536176696E670047616D65209D
:0618A0005361766564004F
:107E800011248FE598E09EBF8DBF24B614BE80E01C
:107E900071D021FEDDC08EE06DD0AFE7BFEF8099DD
:107EA000FECF9096809BFDCFB9B91197F1F782E094
:107EB0008BB988E18AB94FD0C82F823569F45ED07A
:107EC000E0E0FEE7A89583E08BD089D0E058F10987
:107ED000C8F78AE33CD0EFCF8D7FD9F446D0D82FB6
:107EE000A0E0B1E038D08D93DA13FCCFA0E0B1E090
:107EF00045D0C1110CC0FFBBEEBB8D918DBBE29A8A
:107F0000E19A3196E199FECFD150A9F7E2CF40D066
:107F1000E0CFC33041F429D0C82F30D0859117D09D
:107F2000C150E1F7D6CFC13061F41FD0C82F26D0A1
:107F3000FFBBEEBBE09A8DB30AD03196C150C1F7BA
:107F4000C8CFC13511F488E015D018D0C2CF5D9BE1
:107F5000FECF8CB90895C09AB89A5F9BFECF5C990A
:107F600010C0A8958CB1C0980895F5DFE82FF3DF15
:107F7000F82FF1CF98E191BD81BD0895ECDF8032FB
:107F800019F088E0F7DFFFCF80EAE1CFFB01DC01E9
:107F9000E07870E87A0F9F01E0388EE7F80728F55F
:107FA000309629F48FE38D938FEC8C93119790E0AA
:107FB00045915D9145139160A713FACFF901A0583F
:107FC000B10990FF12C083E00BD081E00D901D90AD
:107FD00007D03296A713FACFF90185E001D081E1ED
:0E7FE00087BFE89517B610FCFDCF1124089559
:067FFA000314C7CFE740AD
:00000001FF
